:100000000C949F010C94BC010C94BC010C94BC0199
:100010000C94BC010C94BC010C94BC010C94BC016C
:100020000C94BC010C94BC010C94BC010C94BC015C
:100030000C94BC010C94BC010C94D1060C94BC0132
:100040000C94BC010C94BC010C94BC010C94BC013C
:100050000C94BC010C94BC010C94BC010C94BC012C
:100060000C94BC010C94BC016E616E00696E66005C
:100070006364696E6F70737578585B656667454633
:100080004700616E006E66696E69747900CDCCCCF4
:100090003D0AD7233C17B7D13877CC2B329595E65C
:1000A000241FB14F0A000020410000C84200401C3C
:1000B0004620BCBE4CCA1B0E5AAEC59D746D732043
:1000C0002000282A5F2A290057726F6E6720446932
:1000D000676974202121006D7320200052656163DF
:1000E00074696F6E2074696D653A00436F6E677254
:1000F0006174756C6174696F6E2021210077686589
:100100006E203020697320646973706C6179656456
:1001100000707265737320616E79206B65792000C1
:100120002E2E0047657420526561647920212000DD
:10013000507265737320616E79206B65792E2E0085
:100140005265616374696F6E2073706565642054D5
:100150006573742100446973706C6179696E6720FE
:1001600053657175656E636500456E746572204EEA
:10017000756D6265722053657100202000436F75B4
:100180006E74696E6720446F776E2E2E2E002020CD
:1001900000436F756E74696E672055702E2E2E00A9
:1001A000202020202020342E2053706565642054A8
:1001B00065737400202020202020332E2053657189
:1001C00020496E70757400202020202020322E20BF
:1001D000436F756E7420446F776E004D656E753A8F
:1001E00020312E20436F756E742055700020002042
:1001F00020202020202020202020202020202020FF
:10020000202020002020202020202020202020200E
:1002100020202020202020200020202020202020FE
:1002200020202020202020202020202020002020EE
:1002300020202020202020202020202020202020BE
:1002400020200000407A10F35A00A0724E180900D6
:1002500010A5D4E80000E87648170000E40B54022B
:100260000000CA9A3B000000E1F505000080969866
:1002700000000040420F000000A0860100000010B6
:100280002700000000E803000000006400000000F8
:10029000000A00000000000100000000002C76D8D9
:1002A00088DC674F0823DFC1DFAE59E1B1B796E5BF
:1002B000E3E453C63AE651997696E8E6C28426EB23
:1002C000898C9B62ED407C6FFCEFBC9C9F40F2BA36
:1002D000A56FA5F490055A2AF75C936B6CF9676DCE
:1002E000C11BFCE0E40D47FEF520E6B500D0ED9023
:1002F0002E0300943577050080841E080000204EF0
:100300000A000000C80C333333330F986E12831188
:1003100041EF8D2114893BE65516CFFEE6DB18D15F
:10032000844B381BF77C1D901DA4BBE42420328431
:10033000725E228100C9F124ECA1E53D2700112461
:100340001FBECFEFD4E0DEBFCDBF11E0A0E0B1E033
:10035000E6E6F8E202C005900D92AC30B107D9F79D
:1003600011E0ACE0B1E001C01D92A833B107E1F7A4
:100370000E94F8010C9431140C9400000E9467054F
:100380000E94B2048EE292E00E94C0040E94AD047A
:1003900089E192E00E94C0040E94A80484E092E0F7
:1003A0000E94C0040E94A3048FEE91E00E94C0044A
:1003B00008950F931F93CF93DF938C010E946705DD
:1003C0000E94A304C0E0D0E0F801EC0FFD1F808183
:1003D00090E00E9422058DEE91E00E94C0042196DB
:1003E000C530D10589F7DF91CF911F910F91089505
:1003F0008F929F92AF92BF92CF92DF92EF92FF9235
:100400000F931F930E9480050E9483060E94F305AC
:1004100088EE93E00E94AB06DD24EE24FF248701E2
:1004200063E0A62E59E0B52ECC24DD2061F50E94B4
:1004300067050E94B2048BED91E00E94C0040E9407
:10044000AD0487EC91E00E94C0040E94A80484EBF4
:1004500091E00E94C0040E94A30480EA91E00E94FF
:10046000C0040E946F06843211F3992787FD90958E
:10047000C09785309105DCF6D82E0E941C077B01C1
:100480008C010E94BE0121E0D216C1F581E00E94DC
:100490008E068C2D0E9494060E9467050E94B2046D
:1004A00081E991E00E94C0040E94AD048C2D90E08F
:1004B0000E9422058EE891E00E94C0040E941C0761
:1004C0006E197F09800B910B685E734080409040ED
:1004D00048F0C39489E08C1508F4CC240E941C07D2
:1004E0007B018C010E946F06843209F49ECF80E06C
:1004F0000E948E060E94BE01DD2496CF22E0D21615
:10050000C9F581E00E948E068B2D0E9494060E9400
:1005100067050E94B2048DE791E00E94C0040E942A
:10052000AD048B2D90E00E9422058AE791E00E94A5
:10053000C0040E941C076E197F09800B910B685E36
:1005400073408040904050F0BA9489E08B1510F4CD
:1005500049E0B42E0E941C077B018C010E946F06AB
:10056000843279F280E00E948E060E94BE0139E05A
:10057000B32E5DCF23E0D21609F07CC0DD24D394E6
:1005800080911501882361F50E9467050E94B204DD
:1005900089E691E00E94C00480E191E00E94D901C7
:1005A0000E946F06843271F020910F01E22FF0E07B
:1005B000E05FFE4F992787FD9095C09780832F5F5E
:1005C00020930F0180910F01853050F00E94BE01F1
:1005D00010920F01D09215010E941C077B018C0123
:1005E00080911501813061F60E9467050E94B20476
:1005F00085E591E00E94C00480E191E00E94D9016C
:10060000E0910F01F0E0E05FFE4F80810E949406D0
:1006100081E00E948E060E941C076E197F09800BE4
:10062000910B6C5D75408040904068F080910F01A7
:100630008F5F80930F01853010F010920F010E94A0
:100640001C077B018C010E946F06843209F498CF4D
:1006500080E00E948E061092150110920F011092F8
:1006600010011092110110921201109213011092B8
:100670001401DDCE84E0D81609F0D7CE99249394E6
:1006800022E0822E93E0D92E80910E018823D1F4AE
:100690000E9467050E94B20480E491E00E94C004B9
:1006A0000E94AD0480E391E00E94C0040E946F06A6
:1006B000843241F090920E010E941C077B018C0154
:1006C0000E94BE0180910E01813009F042C08A2D46
:1006D0000E94940681E00E948E060E9467050E9497
:1006E000B20483E291E00E94C0040E94AD048A2D0E
:1006F00090E00E94220580E291E00E94C0040E94E6
:100700001C076E197F09800B910B685E7340804057
:10071000904028F0AA940E941C077B018C018A2D2E
:1007200081508330B0F080920E010E94BE018CE1B6
:1007300097E00E9464100E945F106AE070E00E94DF
:10074000C40F80930D010E941C077B018C0183E084
:10075000A82E80910E01823009F040C00E946705EA
:100760000E94B20481E191E00E94C0040E94AD04A5
:100770008DEF90E00E94C00480910D010E949406CC
:1007800081E00E948E060E941C076E197F09800B73
:10079000910B685E73408040904060F00E945F1053
:1007A0006AE070E00E94C40F80930D010E941C0754
:1007B0007B018C010E946F06843281F0D0920E0181
:1007C0000E941C076E1960930C010E941C077B019C
:1007D0008C010E94BE0180E00E948E0680910E0175
:1007E000833009F051CF80910D018823C1F40E941C
:1007F00067050E94B2048BEE90E00E94C0040E9444
:10080000AD048CED90E00E94C0040E94A804809189
:100810000C0190E00E94220587ED90E017C00E9435
:1008200067050E94B20488EC90E00E94C0040E9418
:10083000AD0482EC90E00E94C0040E94A804809164
:100840000C0190E00E9422058DEB90E00E94C00414
:100850000E946F06843209F417CF10920E01109295
:100860000C010E941C070E94BE01E1CD20E030E097
:100870000BC00000000000000000000000000000AD
:10088000000000002F5F3F4F2817390790F30895AD
:1008900040E050E013C020E030E000000000000025
:1008A0000000000000000000000000002F5F3F4F2C
:1008B00063E0283E360789F74F5F5F4F48175907B7
:1008C00050F308955F9A08955F9808959BB1937CC3
:1008D0009BB92BB1992787FD90958F709070880FE9
:1008E000991F880F991F282B2BB95E9A81E090E001
:1008F0000E9436045E9881E090E00E9436040895DC
:100900001F93182F82958F700E946604812F8F701D
:100910000E94660480E590E00E9436041F910895CD
:100920005F98823041F0833041F0813011F480E4EF
:1009300005C080E003C084E101C084E5860F8068C3
:100940000E948004089583E060E00E94900408956E
:1009500082E060E00E949004089581E060E00E94DF
:100960009004089580E060E00E94900408955F9AEA
:100970000E94800408950E94B70480E090E00895EA
:10098000CF93DF93EC0105C02196F90184910E9479
:10099000B7049E01FE0184918823B1F7DF91CF91C6
:1009A0000895CF92DF92EF92FF920F931F93CF9310
:1009B000DF93EC0197FF06C08DE20E94B704D0954B
:1009C000C195DF4F40E000E117E2EE24FF24DC2E6A
:1009D000CD2ECE01B8010E94B00FCB01611571057B
:1009E00029F4442319F40130110551F4805D0E946B
:1009F000B7048D2D9C2DB8010E94B00FEC0141E091
:100A00000436110549F4442319F480E30E94B70425
:100A10008EE20E94B70441E0C8016AE070E00E94E3
:100A2000B00F8B010894E11CF11C85E0E816F1047D
:100A300071F6DF91CF911F910F91FF90EF90DF90B2
:100A4000CF900895CF92DF92EF92FF920F931F9372
:100A5000CF93DF93EC0197FF06C08DE20E94B704AD
:100A6000D095C195DF4F40E000E117E2EE24FF246E
:100A7000DC2ECD2ECE01B8010E94B00FCB01611546
:100A8000710529F4442319F40130110551F4805DF6
:100A90000E94B7048D2D9C2DB8010E94B00FEC016F
:100AA00041E0C8016AE070E00E94B00F8B01089439
:100AB000E11CF11C85E0E816F104D1F6DF91CF913D
:100AC0001F910F91FF90EF90DF90CF9008955F9866
:100AD00082E00E94800482E390E00E94480408952E
:100AE0005F9881E00E94800482E390E00E944804C5
:100AF00082E00E94800482E390E00E94480408950E
:100B00008AB18C6F8AB984E690E00E9448045F98AD
:100B100083E00E94660486E090E00E94480483E03F
:100B20000E9466048AEF90E00E94360483E00E94EF
:100B300066048AEF90E00E94360482E00E94660418
:100B400088E20E9480048CE00E94800481E00E9480
:100B5000800485E090E00E9448048CE00E948004BC
:100B600086E00E94800484E10E9480040E94700557
:100B70000895982F8091C00085FFFCCF9093C60008
:100B800008958091C000807808958091C00087FF0B
:100B9000FCCF8091C6000895982F8091C00085FFFA
:100BA000FCCF9093C60080E090E008958091C00053
:100BB00087FFFCCF2091C600332727FD3095C90160
:100BC00008951092C50087E08093C40088E1809367
:100BD000C10086E08093C2008CEC95E066ED75E084
:100BE0000E947811089587B1876087B93B983C9837
:100BF0003D98439A449A459A88B1887F88B9089568
:100C000086B1869586958695877008951F9388B1DD
:100C1000866088B940988AE090E00E94360486B1E8
:100C20008695869586958770853009F444C0863010
:100C300021F0833041F517E31FC011E31DC018E315
:100C40001BC088B1836088B942988AE090E00E9416
:100C5000360486B18695869586958770853029F00D
:100C6000863029F0833039F404C016E305C013E35D
:100C700003C019E301C014E28AE090E00E94360448
:100C8000812F1F91089588B1856088B941988AE0C5
:100C900090E00E94360486B1869586958695877089
:100CA000853029F0863029F0833059F6C8CF15E316
:100CB000E3CF12E3E1CF14E3DFCF88B1887F88B9B7
:100CC0008AE090E00E94360486B190E08695869591
:100CD00086958770873009F091E0892F08950E94EA
:100CE0005D06882351F00E940606982F809100012E
:100CF000981731F09093000104C084E280930001C2
:100D000094E2892F0895219A229A239A249A259A67
:100D100029982A982B982C982D980895882311F0BB
:100D20002D9A08952D9808958A30A0F480FF02C06E
:100D3000299A01C0299881FF02C02A9A01C02A98E5
:100D400082FF02C02B9A01C02B9883FF02C02C9A0D
:100D500008952C980895F89425B52E7F25BD24B5C7
:100D60002E7F24BD25B52E7F25BD24B524BD25B5F8
:100D70002E7F25BD16BC24B5226024BD9093190199
:100D80008093180187EE87BDEEE6F0E080818260F7
:100D9000808385B58E7F85BD85B5836085BD78945C
:100DA00008951F920F920FB60F9211242F933F9325
:100DB0008F939F93AF93BF932091160130911701AA
:100DC00080911801909119012817390771F4109238
:100DD00017011092160180911E0190911F0101963A
:100DE00090931F0180931E011CC080911601909169
:100DF00017010196909317018093160180911A01B3
:100E000090911B01A0911C01B0911D010196A11DA3
:100E1000B11D80931A0190931B01A0931C01B09304
:100E20001D01BF91AF919F918F913F912F910F9095
:100E30000FBE0F901F90189520911A0130911B0141
:100E400040911C0150911D01B901CA010895A1E111
:100E5000B0E0EDE2F7E00C94D70F3C017F876E879E
:100E60006A01FC0117821682838181FD03C06FEF46
:100E70007FEF6FC39E012F5F3F4F398B288BF301AC
:100E80002381EE85FF8523FD859123FF8191FF87D7
:100E9000EE87882309F45AC3853251F4EE85FF8525
:100EA00023FD859123FF8191FF87EE87853229F409
:100EB00090E0B3010E940612E2CF982F10E0882440
:100EC00099241032B0F49B3269F09C3228F49032AD
:100ED00051F0933271F40BC09D3239F0903349F4E4
:100EE000116028C01260146025C0186023C0106112
:100EF00021C017FD2AC0892F80538A3078F416FF4D
:100F000006C0FAE09F9E902C1124980E13C03AE080
:100F1000839E802C1124880E10620CC09E3221F416
:100F200016FD14C3106406C09C3611F4106802C08C
:100F3000983659F4EE85FF8523FD959123FF919115
:100F4000FF87EE87992309F0BCCF892F8554833022
:100F500020F4812F8061905E07C0892F85568330F1
:100F600008F09FC1812F8F7E86FD02C076E0972E0C
:100F70006FE3F62EF822953619F4F0E4FF2A07C045
:100F8000963619F420E8F22A02C091109A94F7FEDE
:100F90000AC03BE3391518F45CE3B52E02C0B92C46
:100FA000B39427E009C047E0491520F4BB2447E08B
:100FB000942EF7CF292DBB24C60104969D878C87DC
:100FC000F6016081718182819381AE014F5F5F4F35
:100FD0000B2D0E946F106C010981202E332400FF1D
:100FE00004C003FD02C01DE209C0F1FE02C01BE205
:100FF00005C0F2FC02C010E001C010E2C1018C701B
:101000009070892BB9F1112311F483E001C084E0C1
:10101000881510F088240AC0881AF3FC07C080E203
:1010200090E0B3010E9406128A94C9F7112329F0B7
:10103000812F90E0B3010E94061223FE03C008E650
:1010400010E00EC00CE610E00BC0E114F10409F052
:10105000805290E0B3010E9406120F5F1F4F05C03F
:10106000EF2CFF24F0E1EF22FF24F8018491882384
:1010700061F714C1F7FE12C0BC0C24FE04C08A81C3
:10108000813309F4BA941B141CF0BB24B3942DC013
:10109000F8E0FB1550F538E0B32E27C0F6FC25C06C
:1010A000892D90E08C159D054CF02CEFC2162FEF8A
:1010B000D20624F030E8F32A01C09A94992049F02E
:1010C000E2E0F0E0EC0FFD1FE90DF11D80818033BF
:1010D000A1F3F7FE0AC0B92CB394892D90E0C8168D
:1010E000D90614F0992401C09C18F7FC03C025E030
:1010F00030E009C01C141D041CF021E030E003C0E6
:1011000096012F5F3F4F112311F02F5F3F4F992022
:1011100029F0892D90E00196280F391F882D90E045
:101120002817390714F0882401C0821A4F2C55243F
:10113000C20189709070892B39F008C080E290E07C
:10114000B3010E9406128A948820C1F7112329F066
:10115000812F90E0B3010E94061243FE07C008C031
:1011600080E390E0B3010E9406128A948820C1F7C0
:10117000F7FE46C08601D7FE02C000E010E076010F
:101180000894E11CF11CE01AF10A41E050E04C0F18
:101190005D1FE40EF51E26014B185108892D90E0C5
:1011A000AA24BB24A81AB90A5FEF0F3F150729F438
:1011B0008EE290E0B3010E940612C016D10634F010
:1011C000401651061CF4F701808101C080E30150F4
:1011D00010400894E11CF11C0A151B052CF090E04E
:1011E000B3010E940612E0CF0C151D0539F49A8157
:1011F000963318F4953311F424FE81E390E04BC04C
:101200008A81813309F00F7E90E0B3010E940612BB
:101210009920A1F08EE290E0B3010E94061212E044
:10122000E1E0F0E0EC0FFD1FE10FF11D1F5F808199
:1012300090E0B3010E9406129A9491F744FC03C017
:1012400085E690E002C085E490E0B3010E940612BA
:10125000D7FC05C0C114D10441F404FF06C0D094EA
:10126000C194D108D3948DE201C08BE290E0B30128
:101270000E94061280E305C08F5F26EF3FEFC20E8B
:10128000D31E3AE0C316D104BCF790E0B3010E942C
:101290000612C601C096B3010E940612CC84DD84FA
:1012A00052C1933631F0933799F0933509F059C014
:1012B00023C0F601808189835E010894A11CB11CC2
:1012C00022E030E0C20ED31E21E0E22EF12C12C04B
:1012D000F601A080B18016FD03C06FEF7FEF02C062
:1012E000692D70E022E030E0C20ED31EC5010E94DD
:1012F0006D117C011F7713C0F601A080B18016FD2F
:1013000003C06FEF7FEF02C0692D70E022E030E094
:10131000C20ED31EC5010E9462117C01106813FF2A
:1013200007C01BC080E290E0B3010E9406128A94BD
:10133000882D90E0E816F906A8F30FC0F50117FD17
:10134000859117FF81915F0190E0B3010E94061221
:1013500081108A940894E108F108E114F10471F70E
:10136000F2C0943611F0993689F517FF08C0F601DE
:10137000208131814281538184E090E00AC0F601EE
:10138000808191819C01442737FD4095542F82E054
:1013900090E0C80ED91E9FE6F92EF12257FF09C032
:1013A00050954095309521953F4F4F4F5F4F90E8B6
:1013B000F92ACA01B901AE014F5F5F4F2AE030E060
:1013C0000E944C12E82EE889EE1A41C0953721F4AC
:1013D0001F7E2AE030E01CC0197F9F3661F09037F5
:1013E00020F4983509F0B2C00FC0903739F0983723
:1013F00009F0ACC004C028E030E00AC0106114FD60
:10140000146020E130E004C014FD166020E132E0F9
:1014100017FF08C0F601608171818281938144E0E9
:1014200050E008C0F60180819181BC0180E090E02D
:1014300042E050E0C40ED51EAE014F5F5F4F0E94E8
:101440004C12E82E5889E51A8FE7F82EF122F6FEA5
:101450000BC08EEFF822E91438F4F4FE07C0F2FC5A
:1014600005C09FEEF92202C01E2D01C0192DF4FE09
:101470000DC0FE01EE0DF11D8081803319F4E9EEFF
:10148000FE2208C01F5FF2FE05C003C08F2D8678C4
:1014900009F01F5F0F2DF3FC14C0F0FE0FC01815EC
:1014A00010F09E2C0BC09E2C980C911A182D06C083
:1014B00080E290E0B3010E9406121F5F1815C0F38E
:1014C00004C0181510F4811A01C0882404FF0FC04D
:1014D00080E390E0B3010E94061202FF1DC001FDEF
:1014E00003C088E790E00EC088E590E00BC0802F35
:1014F000867891F001FF02C08BE201C080E2F7FC28
:101500008DE290E0B3010E94061206C080E390E0F5
:10151000B3010E9406129A94E914C0F3EA94E1E040
:10152000F0E0EC0FFD1FEE0DF11D808190E0B301A6
:101530000E940612EE2091F706C080E290E0B3010F
:101540000E9406128A948820C1F799CCF301668123
:101550007781CB016196E2E10C94F30FFC0120FD51
:1015600008C023FD05C022FF02C07383628351833C
:1015700040830895EF92FF920F931F9344FF02C0A0
:1015800033E011C046FF02C034E00DC0DB01FC01B6
:10159000AA0FBB1FEE1FFF1F1094D1F76A0F7B1F0E
:1015A0008E1F9F1F31E0660F771F881F991F3150D4
:1015B000D1F77B018C01E20EF11C011D111DA80168
:1015C0009701B701CA011F910F91FF90EF90089505
:1015D0000F931F93CF93DF938C01C8010E94C41116
:1015E000EC0197FD08C00E944711892BB1F7CE018D
:1015F000B8010E943212CE01DF91CF911F910F915D
:1016000008958F929F92AF92BF92DF92EF92FF92D6
:101610000F931F93CF93DF935C01EB014A01122FCD
:101620000E94C411AC018B3219F08D3251F4106854
:10163000219709F46DC0C5010E94C411AC0197FD4A
:1016400067C06DEFD62ED1228D2D807301F540330A
:10165000F1F4219709F447C0C5010E94C411AC01FF
:1016600097FD41C082E0D82A483711F0483559F437
:1016700080E4D82A2197B9F1C5010E94C411AC01B8
:1016800099232CF430C0D6FC02C080E1D82AEE2485
:10169000FF248701242F2053283088F0D4FC09C070
:1016A0002A3068F0D6FE05C02F7D822F815186300A
:1016B00028F0CA01B5010E94321212C02750C80199
:1016C000B7014D2D0E94BA0A7B018C0182E0D82A15
:1016D000219761F0C5010E94C411AC0197FFDACFD8
:1016E000D1FC04C015C0EE24FF248701D7FE08C03A
:1016F00010950095F094E094E11CF11C011D111D62
:10170000C401B801A7012D2D0E94AE0A81E001C0DD
:1017100080E0DF91CF911F910F91FF90EF90DF90CC
:10172000BF90AF909F908F900895A0E2B0E0EBE95A
:10173000FBE00C94DB0F5C016B018A017901FE0177
:10174000319680E2DF011D928A95E9F770E030E082
:1017500060E040E050E03F01A1E0B0E0F5018381AE
:10176000F70183FD259183FF21917F01222309F455
:1017700081C02E3519F44115510569F1872F90E08C
:101780008417950744F42D3551F12D3221F433237C
:1017900029F431E021C0332309F4622F322F832F43
:1017A000869586958695F301E80FF11D832F877046
:1017B0004D0102C0880C991C8A95E2F720812829E6
:1017C0002083361711F430E007C0361710F43F5F5E
:1017D000E6CF3150E4CF71E04F5F5F4FBFCF33238F
:1017E00019F08E8180628E83772359F0FE01319645
:1017F0009E012F5D3F4F808180958193E217F30713
:10180000D1F7992493943E010894611C711CC50181
:101810000E94C411AC0197FD25C0869586958695DA
:10182000F301E80FF11D808190E09A01277030707C
:1018300002C0959587952A95E2F780FD05C0CA01FB
:10184000B5010E9432120EC00115110519F0D80120
:101850004D938D010894C108D1089924C114D10475
:10186000B1F602C0992031F40115110529F0F801F3
:10187000108202C0EE24FF24C701A096EEE00C9473
:10188000F70F2F923F925F926F927F928F929F926B
:10189000AF92BF92CF92DF92EF92FF920F931F937E
:1018A000CF93DF933C017B011A010E94C411EC012C
:1018B0008B3239F08D3211F0552411C0B0E85B2E17
:1018C00001C055240894E108F108E114F10409F479
:1018D00018C1C3010E94C411EC0197FD12C1CE01D1
:1018E0000E944F118936910521F08E36910599F5A8
:1018F0001DC005E810E01CC00894E108F108E114DF
:10190000F10471F0C3010E94C411EC0197FD08C0FD
:101910000E944F11D81661F0CE01B3010E9432121D
:1019200020E00838120709F0ECC008C002E810E017
:10193000F8010F5F1F4FD490DD20F1F605581040DD
:1019400029F080E090E0A0E8BFE7CFC080E090E021
:10195000A0ECBFE7CAC0CC24DD248824992454011C
:10196000AE014053242F4A3038F552E0552A852DD8
:1019700090E0AC014870507052FE06C0452B11F546
:101980000894C11CD11C1EC0452B19F00894C10835
:10199000D108C501B40140E20E94BA0A4B015C01C2
:1019A00088E9881689E9980689E9A80689E1B806D0
:1019B00048F094E0592A06C04E3F81F453FC0EC013
:1019C000E8E05E2A0894E108F108E114F10431F03E
:1019D000C3010E94C411EC0197FFC2CF51FE91C018
:1019E000C53619F0C53409F046C00894E108F1087D
:1019F000E114F10409F485C0C3010E94C411EC0193
:101A000097FD7FC08B3221F08D3269F4F0E15F2ABF
:101A10000894E108F108E114F10409F472C0C3016B
:101A20000E94C411EC01CE01C0970A9708F069C06A
:101A300000E010E0B801882777FD8095982FAE016F
:101A40004053242F40E20E94BA0A8B010894E10817
:101A5000F108E114F10439F0C3010E94C411EC0152
:101A6000C0970A9738F3B80154FE03C0709561958A
:101A70007F4FC60ED71EEF2831F0D7FD04C0CE0130
:101A8000B3010E943212C501B4010E94BF0ED7FEFD
:101A90000DC0A1EAEA2EA0E0FA2ED094C194D1089C
:101AA000D394C0E2D0E000E010E00EC0F9EBEF2EDE
:101AB000F0E0FF2EF6CFF701259135914591549135
:101AC0000E94FC0ECC1ADD0ACC16DD06A0F7D695D6
:101AD000C7950F5F1F4F0630110529F0ECEFFFEFA0
:101AE000EE0EFF1EF1CFDC01CB0157FCB0582114E4
:101AF000310429F0F10180839183A283B38381E0D3
:101B000001C080E0DF91CF911F910F91FF90EF9086
:101B1000DF90CF90BF90AF909F908F907F906F900D
:101B20005F903F902F900895A0E0B0E0EAE9FDE0DB
:101B30000C94DA0F4C015B013A01FC01178216820A
:101B4000552404C1812F90E00E944711892B21F078
:101B5000C4010E94E80AFAC0153249F4F501F3FC09
:101B60006591F3FE61915F01653269F415E2C4018C
:101B70000E94C41197FDF6C0181709F4E7C0B4011C
:101B80000E943212F4C06A3219F0162F00E006C02B
:101B9000F3FC1591F3FE11915F0101E0CC24DD24EB
:101BA0000EC00260B60180E090E040E20E94BA0AF6
:101BB0006B01F501F3FC1591F3FE11915F01212FEB
:101BC00020532A3070F301FD04C0CC24CA94DC2CCD
:101BD00004C0C114D10409F4CAC0183621F01C365F
:101BE00099F4F5010BC0F501F3FC6591F3FE6191E9
:101BF000683619F05F01162F07C008600460F3FC17
:101C00001591F3FE11915F01112309F4B0C080E733
:101C100090E0612F70E00E945711892B09F4A7C052
:101C2000802F00FF03C0EE24FF2407C0F301E080F3
:101C3000F18022E030E0620E731E1E3651F4F40192
:101C40004681578160E070E0C701202F0E94AE0AF4
:101C50007DC01336B9F481FD03C081E0C82ED12CBC
:101C6000C4010E94C41197FD7DC0E114F10419F074
:101C7000F70181937F010894C108D108C114D104F0
:101C800079F762C01B3559F4C401B601A70195016B
:101C90000E94950B5C01009709F056C050C0C4012A
:101CA0000E94E80A97FD5EC01F36D1F1103738F464
:101CB0001436A1F11936A9F11835D1F52DC0133715
:101CC00051F0143718F4103799F526C0153731F153
:101CD000183771F521C0C4010E94C411EC0197FDB1
:101CE00015C00E944711892B29F0CE01B4010E9432
:101CF00032120CC0E114F10419F0F701C1937F0115
:101D00000894C108D108C114D10429F7E114F104E1
:101D1000D9F0F701108218C0006403C0006201C04E
:101D20000061C401B601A701202F0E94010B05C06C
:101D3000C401B601A7010E94410C882329F4F401D3
:101D40008381807379F413C000FF5394F401F3800E
:101D5000F501F3FC1591F3FE11915F01112309F0D8
:101D6000F1CE05C0552019F42FEF3FEF02C0252D0D
:101D700030E0C901CDB7DEB7EFE00C94F60FE89480
:101D800009C097FB3EF490958095709561957F4FC3
:101D90008F4F9F4F9923A9F0F92F96E9BB27939571
:101DA000F695879577956795B795F111F8CFFAF481
:101DB000BB0F11F460FF1BC06F5F7F4F8F4F9F4FB2
:101DC00016C0882311F096E911C0772321F09EE810
:101DD000872F762F05C0662371F096E8862F70E076
:101DE00060E02AF09A95660F771F881FDAF7880F50
:101DF0009695879597F908950BD078C069D028F00B
:101E00006ED018F0952309F05AC05FC01124A2C00B
:101E10007ED0A0F3959FD1F3950F50E0551F629FA0
:101E2000F001729FBB27F00DB11D639FAA27F00D33
:101E3000B11DAA1F649F6627B00DA11D661F829F5A
:101E40002227B00DA11D621F739FB00DA11D621F3F
:101E5000839FA00D611D221F749F3327A00D611D5C
:101E6000231F849F600D211D822F762F6A2F11243E
:101E70009F5750408AF0E1F088234AF0EE0FFF1F91
:101E8000BB1F661F771F881F91505040A9F79E3FC8
:101E9000510570F014C05EC05F3FECF3983EDCF378
:101EA000869577956795B795F795E7959F5FC1F705
:101EB000FE2B880F911D9695879597F9089597F9B0
:101EC0009F6780E870E060E008959FEF80EC0895E0
:101ED00000240A9416161706180609060895002409
:101EE0000A9412161306140605060895092E039483
:101EF000000C11F4882352F0BB0F40F4BF2B11F4F7
:101F000060FF04C06F5F7F4F8F4F9F4F089557FD55
:101F10009058440F551F59F05F3F71F04795880F57
:101F200097FB991F61F09F3F79F0879508951216EE
:101F300013061406551FF2CF4695F1DF08C016169A
:101F400017061806991FF1CF86957105610508944B
:101F50000895E894BB2766277727CB0197F9089562
:101F6000AA1BBB1B51E107C0AA1FBB1FA617B707BF
:101F700010F0A61BB70B881F991F5A95A9F78095DB
:101F80009095BC01CD01089597FB092E07260AD034
:101F900077FD04D0E5DF06D000201AF47095619536
:101FA0007F4F0895F6F7909581959F4F08952F9252
:101FB0003F924F925F926F927F928F929F92AF92D9
:101FC000BF92CF92DF92EF92FF920F931F93CF9326
:101FD000DF93CDB7DEB7CA1BDB0B0FB6F894DEBFBD
:101FE0000FBECDBF09942A88398848885F846E84E3
:101FF0007D848C849B84AA84B984C884DF80EE802D
:10200000FD800C811B81AA81B981CE0FD11D0FB635
:10201000F894DEBF0FBECDBFED010895A0E0B0E0A3
:10202000E4E1F0E10C94DF0FEC01A880B980CA80F4
:10203000DB80A114B104C104D10441F484E2A82ED0
:1020400089EDB82E8BE5C82E87E0D82EC601B501E4
:102050002DE133EF41E050E00E94F41327EA31E430
:1020600040E050E00E94D5137B018C01C601B50110
:102070002DE133EF41E050E00E94F413CA01B901B1
:102080002CEE34EF4FEF5FEF0E94D5136E0D7F1DE6
:10209000801F911F97FF04C061507040804090489E
:1020A000688379838A839B839B013F77C901CDB77E
:1020B000DEB7EAE00C94FB0F0E940E10089581E059
:1020C00091E00E940E100895A0E0B0E0809301011D
:1020D00090930201A0930301B09304010895283066
:1020E00008F027E03327DA01990F311D87FD916051
:1020F00000966105710539F432602E5F3D9330E33F
:102100002A95E1F708959F3F30F080387105610509
:1021100009F03C5F3C5F3D93913008F08068911D71
:10212000DF93CF931F930F93FF92EF92192F987F16
:102130009695E92F96959695E90FFF27E356FD4F63
:1021400099273327EE24FF24A701E701059008947F
:10215000079428F4360FE71EF81E491F511D660F1D
:10216000771F881F991F0694A1F70590079428F4FC
:10217000E70EF81E491F561FC11D770F881F991FB4
:10218000661F0694A1F70590079428F4F80E491FDE
:10219000561FC71FD11D880F991F661F771F0694F2
:1021A000A1F70590079420F4490F561FC71FD81FA9
:1021B000990F661F771F881F0694A9F784911095C1
:1021C000177041F0D695C79557954795F794E794C2
:1021D0001A95C1F7E3E4F2E06894159015913591F2
:1021E0006591959105907FE27395E118F10A430B93
:1021F000560BC90BD009C0F7E10CF11E431F561F47
:10220000C91FD01D7EF4703311F48A95E6CFE8948F
:10221000015030F0080F0AF40027021708F4202FAD
:102220002395022F7A3328F079E37D932A95E9F7F5
:1022300010C07D932A9589F60694979567953795F2
:1022400017951794E118F10A430B560BC90BD009E7
:1022500098F023957E9173957A3308F070E37C9320
:102260002013B8F77E9170617D9330F0839571E310
:102270007D9370E32A95E1F71124EF90FF900F9181
:102280001F91CF91DF91992787FD90950895911126
:1022900082C2803219F089508550D0F7089591118B
:1022A000089581548A5108F4805E855A0895FC018E
:1022B0000590061621F00020D9F7C0010895319746
:1022C000CF010895FC010590615070400110D8F7CE
:1022D000809590958E0F9F1F0895FC01615070406E
:1022E00001900110D8F7809590958E0F9F1F08954B
:1022F0000F931F93CF93DF938C01EB01009731F481
:102300006115710519F420E030E038C081E090E0FB
:102310006EE070E00E94AA12FC019C01009771F12E
:1023200080E88383209771F0D387C28781E8838315
:1023300080912E0190912F01892B21F4F0932F0190
:10234000E0932E0101151105C9F0118700878381E3
:10235000826083838091300190913101892B71F4E7
:10236000F0933101E093300180913201909133017B
:10237000892B21F4F0933301E0933201C901DF91FD
:10238000CF911F910F910895CF93DF93EC014B8173
:1023900040FF1AC046FF0AC04F7B4B838E819F814E
:1023A00001969F838E838A81282F2BC042FF13C002
:1023B000E881F9818081282F332727FD3095211569
:1023C000310529F440624B832FEF3FEF1BC031965C
:1023D000F983E88311C0EA85FB85CE0109959C014C
:1023E00097FF0AC09B812F5F3F4F11F080E201C031
:1023F00080E1892B8B83E8CF8E819F8101969F831B
:102400008E8330E0C901DF91CF9108950F931F9320
:10241000CF93DF938C01EB018B8181FF1BC082FF87
:102420000DC02E813F818C819D812817390764F46E
:10243000E881F9810193F983E88306C0E885F9858D
:10244000802F0995892B31F48E819F8101969F837E
:102450008E8302C00FEF1FEFC801DF91CF911F9154
:102460000F9108959C01FB01838180FF11C086FDBF
:102470000FC09FEF2F3F390759F0228380648F7D73
:1024800083838681978101979783868330E002C09A
:102490002FEF3FEFC9010895FA01AA27283051F123
:1024A000203181F1E8946F936E7F6E5F7F4F8F4F85
:1024B0009F4FAF4FB1E03ED0B4E03CD0670F781FE4
:1024C000891F9A1FA11D680F791F8A1F911DA11DC9
:1024D0006A0F711D811D911DA11D20D009F4689402
:1024E0003F912AE0269F11243019305D3193DEF6AA
:1024F000CF010895462F4770405D4193B3E00FD060
:10250000C9F7F6CF462F4F70405D4A3318F0495D4A
:1025100031FD4052419302D0A9F7EACFB4E0A6952D
:102520009795879577956795BA95C9F7009761054F
:10253000710508959B01AC010A2E069457954795A5
:1025400037952795BA95C9F7620F731F841F951F9A
:10255000A01D08950F931F93CF93DF93689F800171
:10256000699F100D789F100D1124C8010E94C6129A
:10257000EC01009729F060E070E0A8010E94CE1302
:10258000CE01DF91CF911F910F910895CF93DF93EB
:10259000BC018230910510F462E070E0A091360138
:1025A000B0913701ED01E0E0F0E040E050E021C003
:1025B000888199818617970769F48A819B81309772
:1025C00019F09383828304C090933701809336017E
:1025D000FE0134C06817790738F44115510519F028
:1025E0008417950708F4AC01FE018A819B819C0148
:1025F000E9012097E9F641155105A9F1CA01861BA9
:10260000970B049708F4BA01E0E0F0E02AC08D913E
:102610009C91119784179507F9F46417750781F455
:1026200012968D919C911397309719F09383828322
:1026300004C09093370180933601FD0132964FC05C
:10264000CA01861B970BFD01E80FF91F6193719377
:1026500002978D939C9343C0FD01828193819C01DD
:10266000D9011097A1F68091340190913501892B01
:1026700041F4809107019091080190933501809376
:1026800034014091090150910A014115510541F46D
:102690004DB75EB78091050190910601481B590B1B
:1026A000209134013091350124173507B0F4CA0167
:1026B000821B930B8617970780F0AB014E5F5F4F2D
:1026C0008417950750F0420F531F509335014093E4
:1026D0003401F9016193719302C0E0E0F0E0CF01B1
:1026E000DF91CF910895CF93DF93009709F450C005
:1026F000EC0122971B821A82A0913601B09137011A
:10270000109709F140E050E0AC17BD0708F1BB831A
:10271000AA83FE0121913191E20FF31FAE17BF078B
:1027200079F48D919C911197280F391F2E5F3F4F9F
:102730003983288312968D919C9113979B838A836A
:102740004115510571F4D0933701C093360120C073
:1027500012968D919C911397AD01009711F0DC01B9
:10276000D3CFFA01D383C28321913191E20FF31FBA
:10277000CE17DF0769F488819981280F391F2E5FF2
:102780003F4FFA01318320838A819B819383828327
:10279000DF91CF910895992788270895DC0101C022
:1027A0006D9341505040E0F70895629FD001739FB0
:1027B000F001829FE00DF11D649FE00DF11D929FDD
:1027C000F00D839FF00D749FF00D659FF00D99271C
:1027D000729FB00DE11DF91F639FB00DE11DF91F40
:1027E000BD01CF011124089597FB092E05260ED0B7
:1027F00057FD04D014D00AD0001C38F450954095F1
:10280000309521953F4F4F4F5F4F0895F6F79095C4
:102810008095709561957F4F8F4F9F4F0895A1E2EE
:102820001A2EAA1BBB1BFD010DC0AA1FBB1FEE1F4A
:10283000FF1FA217B307E407F50720F0A21BB30B95
:10284000E40BF50B661F771F881F991F1A9469F711
:1028500060957095809590959B01AC01BD01CF016D
:062860000895F894FFCF7B
:00000001FF
